:020000000629CF
:1000080080318B1D0B280B1C0B2803140C280310A4
:10001800031C15280B10270013109310131113122B
:040028009312090026
:10002C000330FC009730FD00FD0B1A28FC0B1A283E
:06003C00000000000800B6
:100042002000410803192A280E1016200E1416202B
:0C0052002E280E1416200E101620080098
:10005E002000C201C2010830420203184B28410899
:10006E00F20027084106F1007108F200711C4428C5
:10007E001830A7068030F2004528F201A736720824
:0A008E00A704C136C20A3228080098
:100098002000C0013F08C1002F20C00108304002E5
:1000A80003186128BF1F5C280130C10021205E2889
:0C00B800C1012120BF35C00A52280800F9
:1000C4000330FC009530FD00FD0B6628FC0B662810
:0200D400080022
:1000D600103020003802031C71287B282830860047
:1000E60000308700380886070318870A3908810018
:0200F600080000
:1000F8002000BE013A08F1000130F0007108031930
:100108008828F035FF3E83287008BD003808840031
:100118003908850070080005F10071080130031DD9
:100128000030F0003C08F0060319B4283B08003CF6
:100138000318A22862206220BB039A28380884008A
:10014800390885003D080005F10071080130031DDC
:100158000030F0003C08F0060319B428FF30BE0058
:060168003E08F000080053
:10016E0012001E00F003031DB728F103031DB7286C
:02017E00080077
:100180002000B901BA01BB01BC018B13B9010830D1
:1001900039020318D0280130C1002120B90AC7282C
:1001A00020308400003085003B0884070318850A4E
:1001B0000008F0007008BC00BB0A70080319E428AE
:1001C0003C08BF004C20E528E628D028A7013808C5
:1001D000BF004C20BA0138083A020318FC28283026
:1001E0008400003085003A0884070318850A000857
:1001F000BF004C20BA0AEB282708BF004C20C101E1
:0602000021208B1708000D
:0602060021000E100800AB
:10020C0073302000A0006830A100A201A30180304F
:10021C00A400A501A601FF30210099003F308C00FD
:10022C0023008C0120008C013F3024008C00210025
:10023C008E0120008E012100950108308B001030BA
:10024C0097003730270092000321640022008E149F
:10025C000C302000B8000030B900BA011430BB00DB
:10026C00BC017C20700803193C2925140C30B80003
:10027C000030B9000130BA001430BB00BC017C2046
:10028C00700803194A29A5140C30B8000030B900C5
:10029C000230BA001430BB00BC017C20700803197A
:1002AC00582925150C30B8000030B9000430BA00BC
:1002BC001430BB00BC017C20700803196629A515FD
:1002CC000C30B8000030B9000530BA001430BB0057
:1002DC000130BC007C207008031976290130A6007F
:1002EC000C30B8000030B9000530BA001430BB0037
:1002FC00BC017C2070080319932926080319932943
:10030C00A6012309F0007008A300700803199129B5
:10031C002516A51293292512A51625080319A4291B
:10032C00B8012508B9006B200130B8002408B900C9
:10033C006B200230B800C020A501A9290130A6000D
:0A034C0022008E1063002B29AA295D
:020000040001F9
:04000E00940F131622
:00000001FF
