:02000000DA29FB
:1000080070082000A2007108A1007208A0008031C9
:100018002100931D30282000931D30289311803033
:100028003906F00080307002031D1C2800303802A9
:1000380003182128B80A0319B90A80304306F000CA
:1000480080307002031D2A280030420203182F282E
:10005800C20A0319C30A64000B1D45288B1E4528D4
:100068000B118B1D3A282000BF14452820000C1EB8
:100078003F283F1540283F118B150B1027001312FE
:1000880064008B1DDC280B1CDC282700131EDC28D1
:1000980020001508B700D13095008B110B102700F0
:1000A8001312200037081F3C031C5D28BF185D2869
:1000B80062286400BF10BF15BE01BB01BB353F19E4
:1000C80066283B14BF1DB5283E08003A031D812849
:1000D8002309A6003B082306031977283B082606B0
:1000E80003197728DC283B082306031D7D283F12C7
:1000F8007E283F16BC01BE0ADC286400BC0A083012
:100108003C0203188828DC283F1E8B28BB092330B3
:100118008400003085003E0884070318850A00081B
:100128000319A62823308400003085003E08840780
:100138000318850A3B0800060319A3285D28BC019B
:10014800BE0ADC283B08103C0318AB285D283B0896
:10015800BD00BA013B08CC00BD21BF11BC01BE01E6
:10016800DC286400BC0A08303C020318BC28DC28E0
:10017800BC013F1EC028BB093B08CC00BD213D087F
:10018800F000BD0370080319D52827308600003019
:1001980087003E0886070318870A3B088100BE0AC5
:1001A800DB283A080319D9285D283F14B8216400D0
:1001B80020002208F0002108F1002008F2000900C0
:1001C8002000FB01FA01F9018030F800F10CF00C75
:1001D800031CF7287408F90775080318750FFA0740
:1001E8000318FB0A0310F01FFF287408FA077508A4
:1001F8000318750FFB07FB0CFA0CF90CF80C031C21
:10020800EA287B08F3007A08F2007908F1007808F8
:04021800F0000800EA
:10021C0012001E00F003031D0E29F103031D0E290D
:02022C000800C8
:0A022E00250091011312931208003D
:1002380021008E1220001C150C30250093040800A4
:1002480020001B08013EF000F1010030F13D480894
:10025800F400F501E4200630F2007008F40071089B
:10026800F500720803193C29F536F40CFF3E3629CF
:100278000430F1007408F000710803194629F035BC
:10028800FF3E412930307005F3007408F00075080E
:10029800F100F136F00CF136F00C700825009100F1
:0A02A8000F3093057308930408005B
:1002B20020003F1C62293F102730F0000030F1007F
:0802C2006429F001F1010800BC
:0A02CA00250098011A129A1208008C
:1002D40021008E1120001C150C3025009A04080002
:1002E40020001B08013EF000F1010030F13D4808F8
:1002F400F400F501E4200630F2007008F4007108FF
:10030400F500720803198A29F536F40CFF3E842996
:100314000430F1007408F000710803199429F035D1
:10032400FF3E8F2930307005F3007408F000750823
:10033400F100F136F00CF136F00C7008250098004D
:0A0344000F309A0573089A040800B0
:10034E008B138530210095008B168B152700111607
:10035E001216FC302000BF05BF15BE01BB018B1766
:02036E00080085
:0A0370008B138B128B118B17080002
:10037A002000CD01CD0108304D020318D9294C08BF
:10038A00F2003A084C06F1007108F200711CD229F9
:10039A001830BA068030F200D329F201BA36720850
:0A03AA00BA04CC36CD0AC0290800C1
:1003B40073302000A3006830A400A501FF302100A1
:1003C400990010308C0020008C0121008E01200047
:1003D4008E0123008C018E01220091019301FF30D4
:1003E40028009E0021009315640020001C149C1416
:1003F400A6309B0017211C212000C80124212000C5
:100404001C149C14A6309B0065216A212000C8019D
:10041400722122000E16A721D830C200DC30C3009E
:1004240059217008C6007108C700640046084704D3
:1004340003197F2AD830C200DC30C3004608840088
:10044400470885000008F1007108C100C60A0319B5
:10045400C70A46088400470885000008C500711CC7
:10046400412AC40A0530440203183C2AFF30C8005C
:100474002421402A20004508C8002421452A2000C0
:10048400C401C80124212000C11C562AC00A053019
:1004940040020318512AFF30C8007221552A200057
:1004A4004508C80072215A2A2000C001C8017221DF
:1004B4002000411D602A22000E15622A22000E111E
:1004C4002000C11D682A22008E146A2A22008E1080
:1004D4002000411E702A22000E14752A2000C11E1D
:1004E400752A22000E102000A801A901C101C5012E
:1004F400FD30B800FF30B900A72164008030390610
:10050400F00080307002031D892A00303802031C79
:10051400932AC80124212000C801722122000E114F
:100524008E10803020004306F00080307002031DDE
:100534009D2A00304202031CAC2A22000E10200027
:10054400C80124212000C801722122000E118E103E
:080554000E126300122AAD2A09
:020000040001F9
:04000E00940F131424
:00000001FF
